{
  "contractName": "Funding",
  "abi": [
    {
      "constant": true,
      "inputs": [
        {
          "name": "",
          "type": "address"
        }
      ],
      "name": "balances",
      "outputs": [
        {
          "name": "",
          "type": "uint256"
        }
      ],
      "payable": false,
      "stateMutability": "view",
      "type": "function"
    },
    {
      "constant": true,
      "inputs": [],
      "name": "goal",
      "outputs": [
        {
          "name": "",
          "type": "uint256"
        }
      ],
      "payable": false,
      "stateMutability": "view",
      "type": "function"
    },
    {
      "constant": false,
      "inputs": [],
      "name": "renounceOwnership",
      "outputs": [],
      "payable": false,
      "stateMutability": "nonpayable",
      "type": "function"
    },
    {
      "constant": true,
      "inputs": [],
      "name": "owner",
      "outputs": [
        {
          "name": "",
          "type": "address"
        }
      ],
      "payable": false,
      "stateMutability": "view",
      "type": "function"
    },
    {
      "constant": true,
      "inputs": [],
      "name": "finishesAt",
      "outputs": [
        {
          "name": "",
          "type": "uint256"
        }
      ],
      "payable": false,
      "stateMutability": "view",
      "type": "function"
    },
    {
      "constant": true,
      "inputs": [],
      "name": "raised",
      "outputs": [
        {
          "name": "",
          "type": "uint256"
        }
      ],
      "payable": false,
      "stateMutability": "view",
      "type": "function"
    },
    {
      "constant": false,
      "inputs": [
        {
          "name": "_newOwner",
          "type": "address"
        }
      ],
      "name": "transferOwnership",
      "outputs": [],
      "payable": false,
      "stateMutability": "nonpayable",
      "type": "function"
    },
    {
      "inputs": [
        {
          "name": "_duration",
          "type": "uint256"
        },
        {
          "name": "_goal",
          "type": "uint256"
        }
      ],
      "payable": false,
      "stateMutability": "nonpayable",
      "type": "constructor"
    },
    {
      "anonymous": false,
      "inputs": [
        {
          "indexed": true,
          "name": "previousOwner",
          "type": "address"
        }
      ],
      "name": "OwnershipRenounced",
      "type": "event"
    },
    {
      "anonymous": false,
      "inputs": [
        {
          "indexed": true,
          "name": "previousOwner",
          "type": "address"
        },
        {
          "indexed": true,
          "name": "newOwner",
          "type": "address"
        }
      ],
      "name": "OwnershipTransferred",
      "type": "event"
    },
    {
      "constant": true,
      "inputs": [],
      "name": "isFinished",
      "outputs": [
        {
          "name": "",
          "type": "bool"
        }
      ],
      "payable": false,
      "stateMutability": "view",
      "type": "function"
    },
    {
      "constant": true,
      "inputs": [],
      "name": "isFunded",
      "outputs": [
        {
          "name": "",
          "type": "bool"
        }
      ],
      "payable": false,
      "stateMutability": "view",
      "type": "function"
    },
    {
      "constant": false,
      "inputs": [],
      "name": "donate",
      "outputs": [],
      "payable": true,
      "stateMutability": "payable",
      "type": "function"
    },
    {
      "constant": false,
      "inputs": [],
      "name": "withdraw",
      "outputs": [],
      "payable": false,
      "stateMutability": "nonpayable",
      "type": "function"
    },
    {
      "constant": false,
      "inputs": [],
      "name": "refund",
      "outputs": [],
      "payable": false,
      "stateMutability": "nonpayable",
      "type": "function"
    }
  ],
  "bytecode": "0x608060405234801561001057600080fd5b50604051604080610b5d8339810180604052810190808051906020019092919080519060200190929190505050336000806101000a81548173ffffffffffffffffffffffffffffffffffffffff021916908373ffffffffffffffffffffffffffffffffffffffff160217905550814201600381905550806002819055505050610abf8061009e6000396000f3006080604052600436106100ba576000357c0100000000000000000000000000000000000000000000000000000000900463ffffffff16806327e235e3146100bf5780633ccfd60b14610116578063401938831461012d578063590e1ae314610158578063715018a61461016f5780637b352962146101865780637c654303146101b55780638da5cb5b146101e45780639dbd8ff91461023b578063ed88c68e14610266578063f0ea4bfc14610270578063f2fde38b1461029b575b600080fd5b3480156100cb57600080fd5b50610100600480360381019080803573ffffffffffffffffffffffffffffffffffffffff1690602001909291905050506102de565b6040518082815260200191505060405180910390f35b34801561012257600080fd5b5061012b6102f6565b005b34801561013957600080fd5b5061014261044e565b6040518082815260200191505060405180910390f35b34801561016457600080fd5b5061016d610454565b005b34801561017b57600080fd5b50610184610698565b005b34801561019257600080fd5b5061019b61079a565b604051808215151515815260200191505060405180910390f35b3480156101c157600080fd5b506101ca6107a7565b604051808215151515815260200191505060405180910390f35b3480156101f057600080fd5b506101f96107b6565b604051808273ffffffffffffffffffffffffffffffffffffffff1673ffffffffffffffffffffffffffffffffffffffff16815260200191505060405180910390f35b34801561024757600080fd5b506102506107db565b6040518082815260200191505060405180910390f35b61026e6107e1565b005b34801561027c57600080fd5b50610285610910565b6040518082815260200191505060405180910390f35b3480156102a757600080fd5b506102dc600480360381019080803573ffffffffffffffffffffffffffffffffffffffff169060200190929190505050610916565b005b60046020528060005260406000206000915090505481565b6000809054906101000a900473ffffffffffffffffffffffffffffffffffffffff1673ffffffffffffffffffffffffffffffffffffffff163373ffffffffffffffffffffffffffffffffffffffff1614151561035157600080fd5b6103596107a7565b15156103cd576040517f08c379a00000000000000000000000000000000000000000000000000000000081526004018080602001828103825260178152602001807f436f6e7472616374206d7573742062652066756e64656400000000000000000081525060200191505060405180910390fd5b6000809054906101000a900473ffffffffffffffffffffffffffffffffffffffff1673ffffffffffffffffffffffffffffffffffffffff166108fc3073ffffffffffffffffffffffffffffffffffffffff16319081150290604051600060405180830381858888f1935050505015801561044b573d6000803e3d6000fd5b50565b60025481565b600061045e61079a565b15156104d2576040517f08c379a000000000000000000000000000000000000000000000000000000000815260040180806020018281038252601c8152602001807f436f6e7472616374206973206d7573742062652066696e69736865640000000081525060200191505060405180910390fd5b6104da6107a7565b15151561054f576040517f08c379a000000000000000000000000000000000000000000000000000000000815260040180806020018281038252601b8152602001807f436f6e7472616374206d757374206e6f742062652066756e646564000000000081525060200191505060405180910390fd5b600460003373ffffffffffffffffffffffffffffffffffffffff1673ffffffffffffffffffffffffffffffffffffffff168152602001908152602001600020549050600081111515610609576040517f08c379a000000000000000000000000000000000000000000000000000000000815260040180806020018281038252601f8152602001807f4d7573742068617665206465706f736974656420746f2077697468647261770081525060200191505060405180910390fd5b6000600460003373ffffffffffffffffffffffffffffffffffffffff1673ffffffffffffffffffffffffffffffffffffffff168152602001908152602001600020819055503373ffffffffffffffffffffffffffffffffffffffff166108fc829081150290604051600060405180830381858888f19350505050158015610694573d6000803e3d6000fd5b5050565b6000809054906101000a900473ffffffffffffffffffffffffffffffffffffffff1673ffffffffffffffffffffffffffffffffffffffff163373ffffffffffffffffffffffffffffffffffffffff161415156106f357600080fd5b6000809054906101000a900473ffffffffffffffffffffffffffffffffffffffff1673ffffffffffffffffffffffffffffffffffffffff167ff8df31144d9c2f0f6b59d69b8b98abd5459d07f2742c4df920b25aae33c6482060405160405180910390a260008060006101000a81548173ffffffffffffffffffffffffffffffffffffffff021916908373ffffffffffffffffffffffffffffffffffffffff160217905550565b6000426003541115905090565b60006002546001541015905090565b6000809054906101000a900473ffffffffffffffffffffffffffffffffffffffff1681565b60035481565b6107e961079a565b15151561085e576040517f08c379a000000000000000000000000000000000000000000000000000000000815260040180806020018281038252601d8152602001807f436f6e7472616374206d757374206265206e6f742066696e697368656400000081525060200191505060405180910390fd5b6108b034600460003373ffffffffffffffffffffffffffffffffffffffff1673ffffffffffffffffffffffffffffffffffffffff1681526020019081526020016000205461097d90919063ffffffff16565b600460003373ffffffffffffffffffffffffffffffffffffffff1673ffffffffffffffffffffffffffffffffffffffff168152602001908152602001600020819055506109083460015461097d90919063ffffffff16565b600181905550565b60015481565b6000809054906101000a900473ffffffffffffffffffffffffffffffffffffffff1673ffffffffffffffffffffffffffffffffffffffff163373ffffffffffffffffffffffffffffffffffffffff1614151561097157600080fd5b61097a81610999565b50565b6000818301905082811015151561099057fe5b80905092915050565b600073ffffffffffffffffffffffffffffffffffffffff168173ffffffffffffffffffffffffffffffffffffffff16141515156109d557600080fd5b8073ffffffffffffffffffffffffffffffffffffffff166000809054906101000a900473ffffffffffffffffffffffffffffffffffffffff1673ffffffffffffffffffffffffffffffffffffffff167f8be0079c531659141344cd1fd0a4f28419497f9722a3daafe3b4186f6b6457e060405160405180910390a3806000806101000a81548173ffffffffffffffffffffffffffffffffffffffff021916908373ffffffffffffffffffffffffffffffffffffffff160217905550505600a165627a7a7230582029cb3fbb3d84e2b97d5fb0b3e3b1c2557fcc7919d9104e71b8108b646db26a4f0029",
  "source": "// contracts/Funding.sol\npragma solidity 0.4.24;\n\nimport \"openzeppelin-solidity/contracts/ownership/Ownable.sol\";\nimport \"openzeppelin-solidity/contracts/math/SafeMath.sol\";\n\ncontract Funding is Ownable {\n  using SafeMath for uint;\n\n  uint public raised;\n  uint public goal;\n  uint public finishesAt;\n  mapping(address => uint) public balances;\n\n/*\nModifiers are used as an extention of a function.\nModifier code is ran before the function code\n `_;` continues to execution of the function\nResults in less duplicated code for common conditions\n*/\n  modifier onlyNotFinished() {\n    require(!isFinished(), \"Contract must be not finished\");\n    _;\n  }\n\n  modifier onlyFinished() {\n    require(isFinished(), \"Contract is must be finished\");\n    _;\n  }\n\n  modifier onlyNotFunded() {\n    require(!isFunded(), \"Contract must not be funded\");\n    _;\n  }\n\n  modifier onlyFunded() {\n    require(isFunded(), \"Contract must be funded\");\n    _;\n  }\n/*\nThis unnammed function is a fallback function\nIt recieves ether in case ether is sent to this contract without a function call\nI am removing it because it creates a sink with no way to get the ether out.\n*/\n  // function () public payable {}\n\n  constructor(uint _duration, uint _goal) public {\n    finishesAt = now + _duration;\n    goal = _goal;\n  }\n\n  function isFinished() public view returns (bool) {\n    return finishesAt <= now;\n  }\n\n  function isFunded() public view returns (bool) {\n    return raised >= goal;\n  }\n\n  function donate() public onlyNotFinished payable {\n    balances[msg.sender] = balances[msg.sender].add(msg.value);\n    raised = raised.add(msg.value);\n  }\n\n  function withdraw() public onlyOwner onlyFunded {\n    owner.transfer(address(this).balance);\n  }\n\n  function refund() public onlyFinished onlyNotFunded {\n    uint amount = balances[msg.sender];\n    require(amount > 0, \"Must have deposited to withdraw\");\n    balances[msg.sender] = 0;\n    msg.sender.transfer(amount);\n  }\n}\n",
  "sourcePath": "/Users/hz/workspace/tdd-solidity/contracts/Funding.sol",
  "compiler": {
    "name": "solc",
    "version": "0.4.24+commit.e67f0147.Emscripten.clang"
  },
  "schemaVersion": "2.0.1",
  "updatedAt": "2019-07-21T22:50:10.408Z"
}