{
  "contractName": "Funding",
  "abi": [
    {
      "constant": true,
      "inputs": [],
      "name": "goalAmount",
      "outputs": [
        {
          "name": "",
          "type": "uint256"
        }
      ],
      "payable": false,
      "stateMutability": "view",
      "type": "function"
    },
    {
      "constant": true,
      "inputs": [],
      "name": "deadline",
      "outputs": [
        {
          "name": "",
          "type": "uint256"
        }
      ],
      "payable": false,
      "stateMutability": "view",
      "type": "function"
    },
    {
      "constant": true,
      "inputs": [],
      "name": "currentRaisedAmount",
      "outputs": [
        {
          "name": "",
          "type": "uint256"
        }
      ],
      "payable": false,
      "stateMutability": "view",
      "type": "function"
    },
    {
      "constant": false,
      "inputs": [],
      "name": "renounceOwnership",
      "outputs": [],
      "payable": false,
      "stateMutability": "nonpayable",
      "type": "function"
    },
    {
      "constant": true,
      "inputs": [],
      "name": "owner",
      "outputs": [
        {
          "name": "",
          "type": "address"
        }
      ],
      "payable": false,
      "stateMutability": "view",
      "type": "function"
    },
    {
      "constant": true,
      "inputs": [
        {
          "name": "",
          "type": "address"
        }
      ],
      "name": "donationsMap",
      "outputs": [
        {
          "name": "",
          "type": "uint256"
        }
      ],
      "payable": false,
      "stateMutability": "view",
      "type": "function"
    },
    {
      "constant": false,
      "inputs": [
        {
          "name": "_newOwner",
          "type": "address"
        }
      ],
      "name": "transferOwnership",
      "outputs": [],
      "payable": false,
      "stateMutability": "nonpayable",
      "type": "function"
    },
    {
      "inputs": [
        {
          "name": "_duration",
          "type": "uint256"
        },
        {
          "name": "_goalAmount",
          "type": "uint256"
        }
      ],
      "payable": false,
      "stateMutability": "nonpayable",
      "type": "constructor"
    },
    {
      "anonymous": false,
      "inputs": [
        {
          "indexed": true,
          "name": "previousOwner",
          "type": "address"
        }
      ],
      "name": "OwnershipRenounced",
      "type": "event"
    },
    {
      "anonymous": false,
      "inputs": [
        {
          "indexed": true,
          "name": "previousOwner",
          "type": "address"
        },
        {
          "indexed": true,
          "name": "newOwner",
          "type": "address"
        }
      ],
      "name": "OwnershipTransferred",
      "type": "event"
    },
    {
      "constant": true,
      "inputs": [],
      "name": "isFinished",
      "outputs": [
        {
          "name": "",
          "type": "bool"
        }
      ],
      "payable": false,
      "stateMutability": "view",
      "type": "function"
    },
    {
      "constant": true,
      "inputs": [],
      "name": "isFunded",
      "outputs": [
        {
          "name": "",
          "type": "bool"
        }
      ],
      "payable": false,
      "stateMutability": "view",
      "type": "function"
    },
    {
      "constant": true,
      "inputs": [],
      "name": "getCurrentRaisedAmount",
      "outputs": [
        {
          "name": "",
          "type": "uint256"
        }
      ],
      "payable": false,
      "stateMutability": "view",
      "type": "function"
    },
    {
      "constant": false,
      "inputs": [],
      "name": "donate",
      "outputs": [],
      "payable": true,
      "stateMutability": "payable",
      "type": "function"
    },
    {
      "constant": false,
      "inputs": [],
      "name": "withdraw",
      "outputs": [],
      "payable": false,
      "stateMutability": "nonpayable",
      "type": "function"
    }
  ],
  "bytecode": "0x6080604052600060015534801561001557600080fd5b506040516040806109b88339810180604052810190808051906020019092919080519060200190929190505050336000806101000a81548173ffffffffffffffffffffffffffffffffffffffff021916908373ffffffffffffffffffffffffffffffffffffffff160217905550814201600381905550806002819055505050610915806100a36000396000f3006080604052600436106100ba576000357c0100000000000000000000000000000000000000000000000000000000900463ffffffff1680632636b945146100bf57806329dcb0cf146100ea5780632d2a1d20146101155780633ccfd60b14610140578063715018a6146101575780637b3529621461016e5780637c6543031461019d5780638da5cb5b146101cc578063c314a13c14610223578063ed88c68e1461027a578063f2164b7714610284578063f2fde38b146102af575b600080fd5b3480156100cb57600080fd5b506100d46102f2565b6040518082815260200191505060405180910390f35b3480156100f657600080fd5b506100ff6102f8565b6040518082815260200191505060405180910390f35b34801561012157600080fd5b5061012a6102fe565b6040518082815260200191505060405180910390f35b34801561014c57600080fd5b50610155610304565b005b34801561016357600080fd5b5061016c6104d8565b005b34801561017a57600080fd5b506101836105da565b604051808215151515815260200191505060405180910390f35b3480156101a957600080fd5b506101b26105e7565b604051808215151515815260200191505060405180910390f35b3480156101d857600080fd5b506101e16105f6565b604051808273ffffffffffffffffffffffffffffffffffffffff1673ffffffffffffffffffffffffffffffffffffffff16815260200191505060405180910390f35b34801561022f57600080fd5b50610264600480360381019080803573ffffffffffffffffffffffffffffffffffffffff16906020019092919050505061061b565b6040518082815260200191505060405180910390f35b610282610633565b005b34801561029057600080fd5b50610299610762565b6040518082815260200191505060405180910390f35b3480156102bb57600080fd5b506102f0600480360381019080803573ffffffffffffffffffffffffffffffffffffffff16906020019092919050505061076c565b005b60025481565b60035481565b60015481565b6000809054906101000a900473ffffffffffffffffffffffffffffffffffffffff1673ffffffffffffffffffffffffffffffffffffffff163373ffffffffffffffffffffffffffffffffffffffff1614151561035f57600080fd5b6103676105e7565b15156103db576040517f08c379a00000000000000000000000000000000000000000000000000000000081526004018080602001828103825260178152602001807f436f6e7472616374206d7573742062652066756e64656400000000000000000081525060200191505060405180910390fd5b6103e36105da565b1515610457576040517f08c379a000000000000000000000000000000000000000000000000000000000815260040180806020018281038252601c8152602001807f436f6e7472616374206973206d7573742062652066696e69736865640000000081525060200191505060405180910390fd5b6000809054906101000a900473ffffffffffffffffffffffffffffffffffffffff1673ffffffffffffffffffffffffffffffffffffffff166108fc3073ffffffffffffffffffffffffffffffffffffffff16319081150290604051600060405180830381858888f193505050501580156104d5573d6000803e3d6000fd5b50565b6000809054906101000a900473ffffffffffffffffffffffffffffffffffffffff1673ffffffffffffffffffffffffffffffffffffffff163373ffffffffffffffffffffffffffffffffffffffff1614151561053357600080fd5b6000809054906101000a900473ffffffffffffffffffffffffffffffffffffffff1673ffffffffffffffffffffffffffffffffffffffff167ff8df31144d9c2f0f6b59d69b8b98abd5459d07f2742c4df920b25aae33c6482060405160405180910390a260008060006101000a81548173ffffffffffffffffffffffffffffffffffffffff021916908373ffffffffffffffffffffffffffffffffffffffff160217905550565b6000426003541115905090565b60006002546001541015905090565b6000809054906101000a900473ffffffffffffffffffffffffffffffffffffffff1681565b60046020528060005260406000206000915090505481565b61063b6105da565b1515156106b0576040517f08c379a000000000000000000000000000000000000000000000000000000000815260040180806020018281038252601d8152602001807f436f6e7472616374206d757374206265206e6f742066696e697368656400000081525060200191505060405180910390fd5b61070234600460003373ffffffffffffffffffffffffffffffffffffffff1673ffffffffffffffffffffffffffffffffffffffff168152602001908152602001600020546107d390919063ffffffff16565b600460003373ffffffffffffffffffffffffffffffffffffffff1673ffffffffffffffffffffffffffffffffffffffff1681526020019081526020016000208190555061075a346001546107d390919063ffffffff16565b600181905550565b6000600154905090565b6000809054906101000a900473ffffffffffffffffffffffffffffffffffffffff1673ffffffffffffffffffffffffffffffffffffffff163373ffffffffffffffffffffffffffffffffffffffff161415156107c757600080fd5b6107d0816107ef565b50565b600081830190508281101515156107e657fe5b80905092915050565b600073ffffffffffffffffffffffffffffffffffffffff168173ffffffffffffffffffffffffffffffffffffffff161415151561082b57600080fd5b8073ffffffffffffffffffffffffffffffffffffffff166000809054906101000a900473ffffffffffffffffffffffffffffffffffffffff1673ffffffffffffffffffffffffffffffffffffffff167f8be0079c531659141344cd1fd0a4f28419497f9722a3daafe3b4186f6b6457e060405160405180910390a3806000806101000a81548173ffffffffffffffffffffffffffffffffffffffff021916908373ffffffffffffffffffffffffffffffffffffffff160217905550505600a165627a7a723058206fb58f68871e987e3dfd35938de16be18c4fa72bc5dc5b2f3570ce3d9bf1c7fe0029",
  "source": "// contracts/Funding.sol\npragma solidity 0.4.24;\n\nimport \"openzeppelin-solidity/contracts/ownership/Ownable.sol\";\nimport \"openzeppelin-solidity/contracts/math/SafeMath.sol\";\n\ncontract Funding is Ownable {\n  using SafeMath for uint;\n\n  // public fields can be read by any other address\n  uint public currentRaisedAmount = 0;     // currentRaisedAmount\n  uint public goalAmount;       // goalAmount\n  uint public deadline; //deadlineTime\n  mapping(address => uint) public donationsMap; // donationsMap\n\n/*\nModifiers are used as an extention of a function.\nModifier code is ran before the function code\n `_;` continues to execution of the function\nResults in less duplicated code for common conditions\n*/\n  modifier onlyWhenNotFinished() {\n    require(!isFinished(), \"Contract must be not finished\");\n    _;\n  }\n\n  modifier onlyWhenFinished() {\n    require(isFinished(), \"Contract is must be finished\");\n    _;\n  }\n\n  modifier onlyWhenNotFunded() {\n    require(!isFunded(), \"Contract must not be funded\");\n    _;\n  }\n\n  modifier onlyWhenFunded() {\n    require(isFunded(), \"Contract must be funded\");\n    _;\n  }\n\n  constructor(uint _duration, uint _goalAmount) public {\n    // set fields of the contract for finishesAt and goal\n    deadline = now + _duration;\n    goalAmount = _goalAmount;\n  }\n\n  function isFinished() public view returns (bool) {\n    // if the current time is greater than finishesAt time\n    // return true, else return false\n    return deadline <= now;\n  }\n\n  function isFunded() public view returns (bool) {\n    // if raised is greater than or equal to goal return true, else return false\n    return currentRaisedAmount >= goalAmount;\n  }\n\n  function getCurrentRaisedAmount() public view returns (uint) {\n    return currentRaisedAmount;\n  }\n\n  function donate() public onlyWhenNotFinished payable {\n    // create a new entry in the balances hash map,\n    // key is the address of the msg sender - value is the msg value.\n    // Add msg value to the raised value\n    // donationsMap[msg.sender] = donationsMap[msg.sender].add(msg.value);\n    // //donationsMap[msg.sender] = donationsMap[msg.sender];\n    // currentRaisedAmount = currentRaisedAmount.add(msg.value);\n    donationsMap[msg.sender] = donationsMap[msg.sender].add(msg.value);\n    currentRaisedAmount = currentRaisedAmount.add(msg.value);\n  }\n\n  function withdraw() public onlyOwner onlyWhenFunded onlyWhenFinished {\n    // transfer the balance of this contract at this address\n    // to the owner of this contract\n    // owner.transfer(address(this).balance);\n    owner.transfer(address(this).balance);\n  }\n}\n",
  "sourcePath": "/Users/hz/workspace/tdd-solidity/contracts/Funding.sol",
  "compiler": {
    "name": "solc",
    "version": "0.4.24+commit.e67f0147.Emscripten.clang"
  },
  "schemaVersion": "2.0.1",
  "updatedAt": "2019-07-24T11:26:04.632Z"
}