{
  "contractName": "Funding",
  "abi": [
    {
      "constant": true,
      "inputs": [],
      "name": "goalAmount",
      "outputs": [
        {
          "name": "",
          "type": "uint256"
        }
      ],
      "payable": false,
      "stateMutability": "view",
      "type": "function"
    },
    {
      "constant": true,
      "inputs": [],
      "name": "deadline",
      "outputs": [
        {
          "name": "",
          "type": "uint256"
        }
      ],
      "payable": false,
      "stateMutability": "view",
      "type": "function"
    },
    {
      "constant": true,
      "inputs": [],
      "name": "currentRaisedAmount",
      "outputs": [
        {
          "name": "",
          "type": "uint256"
        }
      ],
      "payable": false,
      "stateMutability": "view",
      "type": "function"
    },
    {
      "constant": false,
      "inputs": [],
      "name": "renounceOwnership",
      "outputs": [],
      "payable": false,
      "stateMutability": "nonpayable",
      "type": "function"
    },
    {
      "constant": true,
      "inputs": [],
      "name": "owner",
      "outputs": [
        {
          "name": "",
          "type": "address"
        }
      ],
      "payable": false,
      "stateMutability": "view",
      "type": "function"
    },
    {
      "constant": true,
      "inputs": [
        {
          "name": "",
          "type": "address"
        }
      ],
      "name": "donationsMap",
      "outputs": [
        {
          "name": "",
          "type": "uint256"
        }
      ],
      "payable": false,
      "stateMutability": "view",
      "type": "function"
    },
    {
      "constant": false,
      "inputs": [
        {
          "name": "_newOwner",
          "type": "address"
        }
      ],
      "name": "transferOwnership",
      "outputs": [],
      "payable": false,
      "stateMutability": "nonpayable",
      "type": "function"
    },
    {
      "inputs": [
        {
          "name": "_duration",
          "type": "uint256"
        },
        {
          "name": "_goalAmount",
          "type": "uint256"
        }
      ],
      "payable": false,
      "stateMutability": "nonpayable",
      "type": "constructor"
    },
    {
      "anonymous": false,
      "inputs": [
        {
          "indexed": true,
          "name": "previousOwner",
          "type": "address"
        }
      ],
      "name": "OwnershipRenounced",
      "type": "event"
    },
    {
      "anonymous": false,
      "inputs": [
        {
          "indexed": true,
          "name": "previousOwner",
          "type": "address"
        },
        {
          "indexed": true,
          "name": "newOwner",
          "type": "address"
        }
      ],
      "name": "OwnershipTransferred",
      "type": "event"
    },
    {
      "constant": true,
      "inputs": [],
      "name": "isFinished",
      "outputs": [
        {
          "name": "",
          "type": "bool"
        }
      ],
      "payable": false,
      "stateMutability": "view",
      "type": "function"
    },
    {
      "constant": true,
      "inputs": [],
      "name": "isFunded",
      "outputs": [
        {
          "name": "",
          "type": "bool"
        }
      ],
      "payable": false,
      "stateMutability": "view",
      "type": "function"
    },
    {
      "constant": true,
      "inputs": [],
      "name": "getCurrentRaisedAmount",
      "outputs": [
        {
          "name": "",
          "type": "uint256"
        }
      ],
      "payable": false,
      "stateMutability": "view",
      "type": "function"
    },
    {
      "constant": false,
      "inputs": [],
      "name": "donate",
      "outputs": [],
      "payable": true,
      "stateMutability": "payable",
      "type": "function"
    },
    {
      "constant": false,
      "inputs": [],
      "name": "withdraw",
      "outputs": [],
      "payable": false,
      "stateMutability": "nonpayable",
      "type": "function"
    },
    {
      "constant": false,
      "inputs": [],
      "name": "refund",
      "outputs": [],
      "payable": false,
      "stateMutability": "nonpayable",
      "type": "function"
    }
  ],
  "bytecode": "0x6080604052600060015534801561001557600080fd5b5060405160408061090e8339810180604052810190808051906020019092919080519060200190929190505050336000806101000a81548173ffffffffffffffffffffffffffffffffffffffff021916908373ffffffffffffffffffffffffffffffffffffffff16021790555081420160038190555080600281905550505061086b806100a36000396000f3006080604052600436106100c5576000357c0100000000000000000000000000000000000000000000000000000000900463ffffffff1680632636b945146100ca57806329dcb0cf146100f55780632d2a1d20146101205780633ccfd60b1461014b578063590e1ae314610162578063715018a6146101795780637b352962146101905780637c654303146101bf5780638da5cb5b146101ee578063c314a13c14610245578063ed88c68e1461029c578063f2164b77146102a6578063f2fde38b146102d1575b600080fd5b3480156100d657600080fd5b506100df610314565b6040518082815260200191505060405180910390f35b34801561010157600080fd5b5061010a61031a565b6040518082815260200191505060405180910390f35b34801561012c57600080fd5b50610135610320565b6040518082815260200191505060405180910390f35b34801561015757600080fd5b50610160610326565b005b34801561016e57600080fd5b506101776103ff565b005b34801561018557600080fd5b5061018e6104fa565b005b34801561019c57600080fd5b506101a56105fc565b604051808215151515815260200191505060405180910390f35b3480156101cb57600080fd5b506101d4610609565b604051808215151515815260200191505060405180910390f35b3480156101fa57600080fd5b50610203610618565b604051808273ffffffffffffffffffffffffffffffffffffffff1673ffffffffffffffffffffffffffffffffffffffff16815260200191505060405180910390f35b34801561025157600080fd5b50610286600480360381019080803573ffffffffffffffffffffffffffffffffffffffff16906020019092919050505061063d565b6040518082815260200191505060405180910390f35b6102a4610655565b005b3480156102b257600080fd5b506102bb6106d4565b6040518082815260200191505060405180910390f35b3480156102dd57600080fd5b50610312600480360381019080803573ffffffffffffffffffffffffffffffffffffffff1690602001909291905050506106de565b005b60025481565b60035481565b60015481565b6000809054906101000a900473ffffffffffffffffffffffffffffffffffffffff1673ffffffffffffffffffffffffffffffffffffffff163373ffffffffffffffffffffffffffffffffffffffff1614151561038157600080fd5b610389610609565b15156103fd576040517f08c379a00000000000000000000000000000000000000000000000000000000081526004018080602001828103825260178152602001807f436f6e7472616374206d7573742062652066756e64656400000000000000000081525060200191505060405180910390fd5b565b6104076105fc565b151561047b576040517f08c379a000000000000000000000000000000000000000000000000000000000815260040180806020018281038252601c8152602001807f436f6e7472616374206973206d7573742062652066696e69736865640000000081525060200191505060405180910390fd5b610483610609565b1515156104f8576040517f08c379a000000000000000000000000000000000000000000000000000000000815260040180806020018281038252601b8152602001807f436f6e7472616374206d757374206e6f742062652066756e646564000000000081525060200191505060405180910390fd5b565b6000809054906101000a900473ffffffffffffffffffffffffffffffffffffffff1673ffffffffffffffffffffffffffffffffffffffff163373ffffffffffffffffffffffffffffffffffffffff1614151561055557600080fd5b6000809054906101000a900473ffffffffffffffffffffffffffffffffffffffff1673ffffffffffffffffffffffffffffffffffffffff167ff8df31144d9c2f0f6b59d69b8b98abd5459d07f2742c4df920b25aae33c6482060405160405180910390a260008060006101000a81548173ffffffffffffffffffffffffffffffffffffffff021916908373ffffffffffffffffffffffffffffffffffffffff160217905550565b6000426003541115905090565b60006001546001541015905090565b6000809054906101000a900473ffffffffffffffffffffffffffffffffffffffff1681565b60046020528060005260406000206000915090505481565b61065d6105fc565b1515156106d2576040517f08c379a000000000000000000000000000000000000000000000000000000000815260040180806020018281038252601d8152602001807f436f6e7472616374206d757374206265206e6f742066696e697368656400000081525060200191505060405180910390fd5b565b6000600154905090565b6000809054906101000a900473ffffffffffffffffffffffffffffffffffffffff1673ffffffffffffffffffffffffffffffffffffffff163373ffffffffffffffffffffffffffffffffffffffff1614151561073957600080fd5b61074281610745565b50565b600073ffffffffffffffffffffffffffffffffffffffff168173ffffffffffffffffffffffffffffffffffffffff161415151561078157600080fd5b8073ffffffffffffffffffffffffffffffffffffffff166000809054906101000a900473ffffffffffffffffffffffffffffffffffffffff1673ffffffffffffffffffffffffffffffffffffffff167f8be0079c531659141344cd1fd0a4f28419497f9722a3daafe3b4186f6b6457e060405160405180910390a3806000806101000a81548173ffffffffffffffffffffffffffffffffffffffff021916908373ffffffffffffffffffffffffffffffffffffffff160217905550505600a165627a7a72305820aecee0a206ac012862107542572ed49570a3f500d42293d88ead80822ca672df0029",
  "source": "// contracts/Funding.sol\npragma solidity 0.4.24;\n\nimport \"openzeppelin-solidity/contracts/ownership/Ownable.sol\";\nimport \"openzeppelin-solidity/contracts/math/SafeMath.sol\";\n\ncontract Funding is Ownable { // refactor to kickstarter\n  using SafeMath for uint;\n\n  // public fields can be read by any other address\n  uint public currentRaisedAmount = 0;     // currentRaisedAmount\n  uint public goalAmount;       // goalAmount\n  uint public deadline; //deadlineTime\n  mapping(address => uint) public donationsMap; // donationsMap\n\n/*\nModifiers are used as an extention of a function.\nModifier code is ran before the function code\n `_;` continues to execution of the function\nResults in less duplicated code for common conditions\n*/\n  modifier onlyWhenNotFinished() {\n    require(!isFinished(), \"Contract must be not finished\");\n    _;\n  }\n\n  modifier onlyWhenFinished() {\n    require(isFinished(), \"Contract is must be finished\");\n    _;\n  }\n\n  modifier onlyWhenNotFunded() {\n    require(!isFunded(), \"Contract must not be funded\");\n    _;\n  }\n\n  modifier onlyWhenFunded() {\n    require(isFunded(), \"Contract must be funded\");\n    _;\n  }\n\n  constructor(uint _duration, uint _goalAmount) public {\n    // set fields of the contract for finishesAt and goal\n    deadline = now + _duration;\n    goalAmount = _goalAmount;\n  }\n\n  function isFinished() public view returns (bool) {\n    // if the current time is greater than finishesAt time\n    // return true, else return false\n    return deadline <= now;\n  }\n\n  function isFunded() public view returns (bool) {\n    // if raised is greater than or equal to goal return true, else return false\n    return currentRaisedAmount >= currentRaisedAmount;\n  }\n\n  function getCurrentRaisedAmount() public view returns (uint) {\n    return currentRaisedAmount;\n  }\n\n  function donate() public onlyWhenNotFinished payable {\n    // create a new entry in the balances hash map,\n    // key is the address of the msg sender - value is the msg value.\n    // Add msg value to the raised value\n    // donationsMap[msg.sender] = donationsMap[msg.sender].add(msg.value);\n    // currentRaisedAmount = currentRaisedAmount.add(msg.value);\n  }\n\n  function withdraw() public onlyOwner onlyWhenFunded {\n    // transfer the balance of this contract at this address\n    // to the owner of this contract\n    // owner.transfer(address(this).balance);\n  }\n\n  function refund() public onlyWhenFinished onlyWhenNotFunded {\n    // check the donation amount of msg.sender\n    // require that this amount is greater than zero, else reject it\n    // zero out the balance for the msg.sender\n    // transfer the amount to the msg.sender\n\n    // uint amount = donationsMap[msg.sender];\n    // require(amount > 0, \"To be able to get a refund, user must donate\");\n    // donationsMap[msg.sender] = 0;\n    // msg.sender.transfer(amount);\n  }\n}\n",
  "sourcePath": "/Users/hz/workspace/tdd-solidity/contracts/Funding.sol",
  "compiler": {
    "name": "solc",
    "version": "0.4.24+commit.e67f0147.Emscripten.clang"
  },
  "schemaVersion": "2.0.1",
  "updatedAt": "2019-07-23T02:53:32.084Z"
}